{
    "_format": "hh-sol-artifact-1",
    "contractName": "simpleContract",
    "sourceName": "contracts/Simple.sol",
    "abi": [
        {
            "inputs": [
                {
                    "internalType": "uint256",
                    "name": "_val1",
                    "type": "uint256"
                }
            ],
            "name": "setVal1",
            "outputs": [],
            "stateMutability": "nonpayable",
            "type": "function"
        },
        {
            "inputs": [
                {
                    "internalType": "uint256",
                    "name": "_val2",
                    "type": "uint256"
                }
            ],
            "name": "setVal2",
            "outputs": [],
            "stateMutability": "nonpayable",
            "type": "function"
        },
        {
            "inputs": [
                {
                    "internalType": "string",
                    "name": "_val3",
                    "type": "string"
                }
            ],
            "name": "setVal3",
            "outputs": [],
            "stateMutability": "nonpayable",
            "type": "function"
        },
        {
            "inputs": [],
            "name": "val1",
            "outputs": [
                {
                    "internalType": "uint256",
                    "name": "",
                    "type": "uint256"
                }
            ],
            "stateMutability": "view",
            "type": "function"
        },
        {
            "inputs": [],
            "name": "val2",
            "outputs": [
                {
                    "internalType": "uint256",
                    "name": "",
                    "type": "uint256"
                }
            ],
            "stateMutability": "view",
            "type": "function"
        },
        {
            "inputs": [],
            "name": "val3",
            "outputs": [
                {
                    "internalType": "string",
                    "name": "",
                    "type": "string"
                }
            ],
            "stateMutability": "view",
            "type": "function"
        }
    ],
    "bytecode": "0x6080604052600a60005560146001556040518060400160405280600b81526020017f48656c6c6f20776f726c6400000000000000000000000000000000000000000081525060029081620000549190620002e3565b503480156200006257600080fd5b50620003ca565b600081519050919050565b7f4e487b7100000000000000000000000000000000000000000000000000000000600052604160045260246000fd5b7f4e487b7100000000000000000000000000000000000000000000000000000000600052602260045260246000fd5b60006002820490506001821680620000eb57607f821691505b602082108103620001015762000100620000a3565b5b50919050565b60008190508160005260206000209050919050565b60006020601f8301049050919050565b600082821b905092915050565b6000600883026200016b7fffffffffffffffffffffffffffffffffffffffffffffffffffffffffffffffff826200012c565b6200017786836200012c565b95508019841693508086168417925050509392505050565b6000819050919050565b6000819050919050565b6000620001c4620001be620001b8846200018f565b62000199565b6200018f565b9050919050565b6000819050919050565b620001e083620001a3565b620001f8620001ef82620001cb565b84845462000139565b825550505050565b600090565b6200020f62000200565b6200021c818484620001d5565b505050565b5b8181101562000244576200023860008262000205565b60018101905062000222565b5050565b601f82111562000293576200025d8162000107565b62000268846200011c565b8101602085101562000278578190505b6200029062000287856200011c565b83018262000221565b50505b505050565b600082821c905092915050565b6000620002b86000198460080262000298565b1980831691505092915050565b6000620002d38383620002a5565b9150826002028217905092915050565b620002ee8262000069565b67ffffffffffffffff8111156200030a576200030962000074565b5b620003168254620000d2565b6200032382828562000248565b600060209050601f8311600181146200035b576000841562000346578287015190505b620003528582620002c5565b865550620003c2565b601f1984166200036b8662000107565b60005b8281101562000395578489015182556001820191506020850194506020810190506200036e565b86831015620003b55784890151620003b1601f891682620002a5565b8355505b6001600288020188555050505b505050505050565b6107bb80620003da6000396000f3fe608060405234801561001057600080fd5b50600436106100625760003560e01c80630210dac81461006757806395cacbe014610083578063b5133231146100a1578063b52b657d146100bd578063bf9e206d146100d9578063c82fdf36146100f7575b600080fd5b610081600480360381019061007c9190610330565b610115565b005b61008b610128565b6040516100989190610392565b60405180910390f35b6100bb60048036038101906100b691906103d9565b61012e565b005b6100d760048036038101906100d291906103d9565b610138565b005b6100e1610142565b6040516100ee9190610485565b60405180910390f35b6100ff6101d0565b60405161010c9190610392565b60405180910390f35b806002908161012491906106b3565b5050565b60015481565b8060008190555050565b8060018190555050565b6002805461014f906104d6565b80601f016020809104026020016040519081016040528092919081815260200182805461017b906104d6565b80156101c85780601f1061019d576101008083540402835291602001916101c8565b820191906000526020600020905b8154815290600101906020018083116101ab57829003601f168201915b505050505081565b60005481565b6000604051905090565b600080fd5b600080fd5b600080fd5b600080fd5b6000601f19601f8301169050919050565b7f4e487b7100000000000000000000000000000000000000000000000000000000600052604160045260246000fd5b61023d826101f4565b810181811067ffffffffffffffff8211171561025c5761025b610205565b5b80604052505050565b600061026f6101d6565b905061027b8282610234565b919050565b600067ffffffffffffffff82111561029b5761029a610205565b5b6102a4826101f4565b9050602081019050919050565b82818337600083830152505050565b60006102d36102ce84610280565b610265565b9050828152602081018484840111156102ef576102ee6101ef565b5b6102fa8482856102b1565b509392505050565b600082601f830112610317576103166101ea565b5b81356103278482602086016102c0565b91505092915050565b600060208284031215610346576103456101e0565b5b600082013567ffffffffffffffff811115610364576103636101e5565b5b61037084828501610302565b91505092915050565b6000819050919050565b61038c81610379565b82525050565b60006020820190506103a76000830184610383565b92915050565b6103b681610379565b81146103c157600080fd5b50565b6000813590506103d3816103ad565b92915050565b6000602082840312156103ef576103ee6101e0565b5b60006103fd848285016103c4565b91505092915050565b600081519050919050565b600082825260208201905092915050565b60005b83811015610440578082015181840152602081019050610425565b60008484015250505050565b600061045782610406565b6104618185610411565b9350610471818560208601610422565b61047a816101f4565b840191505092915050565b6000602082019050818103600083015261049f818461044c565b905092915050565b7f4e487b7100000000000000000000000000000000000000000000000000000000600052602260045260246000fd5b600060028204905060018216806104ee57607f821691505b602082108103610501576105006104a7565b5b50919050565b60008190508160005260206000209050919050565b60006020601f8301049050919050565b600082821b905092915050565b6000600883026105697fffffffffffffffffffffffffffffffffffffffffffffffffffffffffffffffff8261052c565b610573868361052c565b95508019841693508086168417925050509392505050565b6000819050919050565b60006105b06105ab6105a684610379565b61058b565b610379565b9050919050565b6000819050919050565b6105ca83610595565b6105de6105d6826105b7565b848454610539565b825550505050565b600090565b6105f36105e6565b6105fe8184846105c1565b505050565b5b81811015610622576106176000826105eb565b600181019050610604565b5050565b601f8211156106675761063881610507565b6106418461051c565b81016020851015610650578190505b61066461065c8561051c565b830182610603565b50505b505050565b600082821c905092915050565b600061068a6000198460080261066c565b1980831691505092915050565b60006106a38383610679565b9150826002028217905092915050565b6106bc82610406565b67ffffffffffffffff8111156106d5576106d4610205565b5b6106df82546104d6565b6106ea828285610626565b600060209050601f83116001811461071d576000841561070b578287015190505b6107158582610697565b86555061077d565b601f19841661072b86610507565b60005b828110156107535784890151825560018201915060208501945060208101905061072e565b86831015610770578489015161076c601f891682610679565b8355505b6001600288020188555050505b50505050505056fea2646970667358221220638770c64f6ad575f52adcbc0df883de2885a0ba6ab7106b2b8a616929a856c464736f6c63430008120033",
    "linkReferences": {},
    "deployedLinkReferences": {}
}